:1000000071C000008FC000008DC000008BC00000D8
:1000100089C0000087C0000085C0000083C00000C8
:1000200081C000007FC000007DC000007BC00000D8
:1000300079C0000077C0000075C0000073C00000E8
:1000400071C0000081C100006DC000006BC00000E5
:1000500069C0000067C0000065C0000063C0000008
:1000600061C000000BC600005DC000005BC0000066
:1000700059C0000057C0000055C0000053C0000028
:1000800051C000004FC000004DC000004BC0000038
:1000900049C0000047C0000045C0000043C0000048
:1000A00041C000003FC000003DC000003BC0000058
:1000B00039C0000037C0000035C0000033C0000068
:1000C00031C000002FC000002DC000002BC0000078
:1000D00029C0000027C0000025C0000023C0000088
:1000E00021C0000011241FBECFEFD1E2DEBFCDBF83
:1000F00000E00CBF12E0A0E0B2E0EAEEF2E100E0C6
:100100000BBF02C007900D92AE30B107D9F72EE0B9
:10011000AEE0B2E001C01D92A635B207E1F701D50D
:100120000C9473096DCF8091010280FF04C080910F
:10013000010290E056D500D2809101028F5F80933A
:100140000102F1CF8091000280FD04C08091000285
:1001500090E047D5809100028A3011F4E3C40895FD
:10016000EBD1809100028F5F80930002EBCF0F9361
:100170001F9372D588E051D50AE010E024E630E004
:1001800044E150E060E070E083E990E0ADD104E14B
:1001900010E024E630E044E150E060E070E082EA04
:1001A00090E0A2D180E090E01F910F910895FFCFE1
:1001B000FF93FCB7FF93FFB7F894FF93EF93DF93A0
:1001C000CF93BF93AF939F938F937F936F935F93DF
:1001D0004F933F932F931F930F93FF92EF92DF92D2
:1001E000CF92BF92AF929F928F927F926F925F92C7
:1001F0004F923F922F921F920F928DB79EB790937E
:10020000C60B8093C50BE091C70BF091C80BF3951B
:10021000808191819EBF8DBF0F901F902F903F9046
:100220004F905F906F907F908F909F90AF90BF9016
:10023000CF90DF90EF90FF900F911F912F913F9102
:100240004F915F916F917F918F919F91AF91BF91EE
:10025000CF91DF91EF91FF91FFBFFF91FCBFFF9125
:100260000895FF93FCB7FF93FFB7F894FF93EF93C4
:10027000DF93CF93BF93AF939F938F937F936F93AE
:100280005F934F933F932F931F930F93FF92EF92A0
:10029000DF92CF92BF92AF929F928F927F926F9296
:1002A0005F924F923F922F921F920F92E091C70B55
:1002B000F091C80B8DB79EB7F395918380838091A1
:1002C000C50B9091C60B9EBF8DBF0F901F902F90B6
:1002D0003F904F905F906F907F908F909F90AF90E6
:1002E000BF90CF90DF90EF90FF900F911F912F91D3
:1002F0003F914F915F916F917F918F919F91AF91BE
:10030000BF91CF91DF91EF91FF91FFBFFF91FCBFB4
:10031000FF910895FC0180819181009751F0DC01EB
:10032000A15FBE4F2D913C911197318320831D9287
:100330001C920895CF93CFB7F89483E080932B025B
:1003400090DFCFBFCF910895FF93FCB7FF93FFB726
:10035000F894F068FF93EF93DF93CF93BF93AF933D
:100360009F938F937F936F935F934F933F932F93BD
:100370001F930F93FF92EF92DF92CF92BF92AF92B3
:100380009F928F927F926F925F924F923F922F92A5
:100390001F920F92E091C70BF091C80B8DB79EB7DB
:1003A000F395918380838091C50B9091C60B9EBF7E
:1003B0008DBF81E080932B028091C90B9091CA0B75
:1003C00005969093CA0B8093C90BE8E8F0E0808112
:1003D0009181805F984D918380838091C50B90912E
:1003E000C60B9EBF8DBF0F901F902F903F904F90D8
:1003F0005F906F907F908F909F90AF90BF90CF90C5
:10040000DF90EF90FF900F911F912F913F914F91AF
:100410005F916F917F918F919F91AF91BF91CF919C
:10042000DF91EF91FF91FFBFFF91FCBFFF91089516
:10043000F89480EF84B980910202811105C0309157
:1004400002023F5F40E603C03091020240E970EFD4
:1004500064E62AE054E175B9862F9FE7A8E3E1E05E
:100460009150A040E040E1F700C000008150A9F7A2
:1004700015B888E2FFE798E3A1E0F1509040A04072
:10048000E1F700C000008150A9F7332359F190E053
:1004900045B9822FEFE7F8E3A1E0E150F040A0403A
:1004A000E1F700C000008150A9F715B8822FEFE7EF
:1004B000F8E3A1E0E150F040A040E1F700C0000007
:1004C0008150A9F79F5F9313E3CF0CC0EFE7F8E3E8
:1004D00091E0E150F0409040E1F700C00000815011
:1004E000A9F7B9CF852FF2CF0F931F93CF93CFB733
:1004F000F8949093210280932002709323026093DA
:10050000220282E080932402509326024093250227
:1005100010932A0200932902309328022093270285
:1005200080932B029EDE80911E0290911F02CFBF0E
:10053000CF911F910F910895CF93DF931F92CDB765
:10054000DEB78FB78983F89484E080932B0289DE2D
:1005500089818FBF0F90DF91CF9108952091840002
:10056000309185008091880090918900205F384DFE
:10057000281B390B329522952F7023273F70232794
:10058000A3E6B0E1CBD396958795969587959695FA
:1005900087952091C90B3091CA0B820F931F089544
:1005A0000F931F93CF93DF938C01EB01FB01E15F6E
:1005B000FE4F11821082DC018D919C911197892B45
:1005C00041F411967C936E9313967C936E931297DD
:1005D00073C0FB01EB5FFE4F8081823009F05FC08A
:1005E000BDDFF801208131812115310509F457C0A3
:1005F000FE01EA5FFE4F0190F081E02DDE01A65F73
:10060000BE4F4D915C911197E40FF51F12964D91DD
:100610005C91E40FF51FE81BF90BD901AA5FBE4FEF
:100620006D917C91119714964D915C911197460FA5
:10063000571F12966D917C91460F571F481B590BFF
:10064000E417F50720F516C0D901AA5FBE4F6D91DA
:100650007C91119714964D915C911197460F571FFD
:1006600012966D917C91460F571F481B590BE4174A
:10067000F50768F4F901E15FFE4F80819181DE01A9
:10068000A15FBE4F8D939C93D183C08315C0D901C8
:10069000A15FBE4F2D913C9121153105A9F6D801DE
:1006A0001296ED91FC911397E15FFE4FD183C083C9
:1006B0001396DC93CE931297DF91CF911F910F91F8
:1006C000089580911A0290911B02892B09F47EC033
:1006D00080912402882329F08AE192E01BDEBC018C
:1006E00002C064EB7AE0FB01E752FF4F10828EEE0E
:1006F0007E96808380E83196808332961082E0E295
:10070000F2E080819181DB01A550BF4F9C938081F5
:100710009181FB01E450FF4F8083319610828AE97A
:1007200091E031969083319680833196CB01895246
:100730009F4F9183808382E0329680838091220252
:100740009091230231969183808380912402329686
:100750008083823001F58091290290912A02E5E29E
:10076000F2E0208131811F96821B930B8D939C9325
:1007700080819181FB01EA5FFE4F918380838091AC
:1007800027029091280232969183808334961182B9
:1007900010823296108280912402823029F08330B8
:1007A00049F08130B1F40CC08EE092E0F9DE81E0D6
:1007B00090E0089582E192E0F3DE81E090E0089518
:1007C00086E192E0EDDE81E090E0089580E090E047
:1007D000089581E090E00895E1E8F0E08081826092
:1007E0008083EEE2F3E025EA3AE01082CF010F9633
:1007F00096878587EF5EFE4FE217F307B1F71092F9
:10080000B30A1092B20A0F2EFCE2EF2EF2E0FF2E96
:10081000F02DF0921B02E0921A0283EA99E0909385
:100820001D0280931C0200E212E087ED90E0F801C7
:1008300091838083C4E2D2E0188243DF87EB90E0AB
:10084000F8019183808383E088833BDFF092C80BBB
:10085000E092C70B81E080932E0382E192E05ADDA3
:10086000EFE6F0E080818260808380918400909147
:100870008500805F984D909389008093880082E086
:1008800086BBC2E1D2E0772473940EE012E00F2E13
:10089000F6E1EF2EF2E0FF2EF02D0F2EF4EBAF2E4F
:1008A000FAE0BF2EF02D0F2EF4E2CF2EF2E0DF2E75
:1008B000F02D6894662461F88091C70B9091C80B65
:1008C000FC01EE5FFE4F2081213021F4845B9A40D1
:1008D00009F04DC088819981892B39F0CE011ADD4C
:1008E0009093C80B8093C70B3BC0F8018081918126
:1008F000892B31F133DEF80120813181F901E45F88
:10090000FE4F40815181841B950B3697D901A65F1C
:10091000BE4F408151812D913C91240F351F82178C
:10092000930770F0C801F6DC4C019093C80B8093DC
:10093000C70B14DEF401E45FFE4F9183808310C087
:10094000F70180819181892B39F0C701E3DC909315
:10095000C80B8093C70B04C0B092C80BA092C70B02
:10096000E091C70BF091C80BEE5FFE4F708220DC68
:1009700080912B02823009F44FC030F4882309F4AF
:10098000BEC0813051F0B7C0843009F48BC008F488
:1009900079C0853009F4B3C0AEC08090C70B909089
:1009A000C80B8114910439F1F401EB5FFE4F808193
:1009B000823009F533978081813009F0A0C0CEDD07
:1009C000F401E45FFE4F20813181821B930B369747
:1009D00040815181349620813181240F351F329717
:1009E00040815181240F351F2817390720F483E0F7
:1009F000809302021DDDF401EB5FFE4F80818130A8
:100A000009F07DC033978081813009F078C0608221
:100A1000B401C701C5DD73C054DE90931F028093FB
:100A20001E0280911E0290911F02892B09F467C05B
:100A3000F6018081833061F48091C70B9091C80BDF
:100A4000FC01EB5FFE4F2081233009F05BC057C0F3
:100A50006091C70B7091C80BFB01EB5FFE4F80816B
:100A6000813009F04CC0F6018081823009F44FC01A
:100A7000FB01EE5FFE4F8081823009F040C0C7016C
:100A80008FDD3DC06091C70B7091C80BFAE0643BED
:100A90007F07A9F1FB01EE5FFE4F10828AE192E031
:100AA0007FDD2DC08090C70B9090C80BF401EB5FE9
:100AB000FE4F8081823049F0833019F08130B1F4EB
:100AC00012C0B401CE016CDD11C0F401E25FFE4F33
:100AD0008081811104C07082349711821082B40128
:100AE000C8015EDD03C0B401C7015ADDF401EE5F49
:100AF000FE4F608204C085E08093020299DC109270
:100B00002B02DACEFC01EE5FFE4F6082A1CFFB012B
:100B1000EE5FFE4F608233968081813009F4A8CF6A
:100B2000EECF5ADECF92DF92EF92FF920F931F9398
:100B3000CF93DF938091EE0D1F928F9383E092E02D
:100B40009F938F938BEC9BE09F938F930AD1BC0173
:100B50008BEC9BE07DD08091EB0B9091EC0B0F9098
:100B60000F900F900F900F900F90181619064CF5DC
:100B7000CDEEDBE0E12CF12C0F2EFAE0CF2EF2E0EF
:100B8000DF2EF02D0BEC1BE08881998122969F933C
:100B90008F93DF92CF921F930F93E3D0BC01C801D4
:100BA00057D08FEFE81AF80A8091EB0B9091EC0B7D
:100BB0000F900F900F900F900F900F90E816F9067E
:100BC0001CF381E08093ED0D1092EC0B1092EB0B77
:100BD000DF91CF911F910F91FF90EF90DF90CF9019
:100BE00008952091EB0B3091EC0B2F3F310509F06C
:100BF00098F4E091EB0BF091EC0BEE0FFF1FE3513B
:100C0000F44F918380838091EB0B9091EC0B0196D4
:100C10009093EC0B8093EB0B08958093EE0D089569
:100C2000F894E0ECF0E0908195FFFDCF8093C60052
:100C300078940895CF93DF93EC018881882329F07D
:100C40002196EEDF89918111FCCFDF91CF9108953C
:100C5000F1DF80E090E008951092550E1092540E4E
:100C60001092EF0D1092C50087E68093C40088E9CA
:100C70008093C1008EE08093C20008951F920F926E
:100C80000FB60F9211240BB60F925F936F937F9361
:100C90008F939F93AF93BF93EF93FF93E0ECF0E0BC
:100CA00080818823ECF7E091540EF091550E8091ED
:100CB000C600E051F24F80838091540E9091550E02
:100CC000019664E670E017D09093550E8093540E11
:100CD00081E08093EF0DFF91EF91BF91AF919F91D4
:100CE0008F917F916F915F910F900BBE0F900FBE10
:100CF0000F901F90189597FB072E16F4009406D0BE
:100D000077FD08D01AD007FC05D03EF49095819568
:100D10009F4F0895709561957F4F0895A29FB001F0
:100D2000B39FC001A39F700D811D1124911DB29F1F
:100D3000700D811D1124911D0895AA1BBB1B51E14B
:100D400007C0AA1FBB1FA617B70710F0A61BB70B3B
:100D5000881F991F5A95A9F780959095BC01CD01E0
:100D600008950F931F93CF93DF93CDB7DEB72E97E0
:100D70000FB6F894DEBF0FBECDBF0E891F8986E087
:100D80008C831A8309838FEF9FE79E838D83AE0147
:100D9000465E5F4F688D798DCE01019610D0EF8150
:100DA000F885E00FF11F10822E960FB6F894DEBF83
:100DB0000FBECDBFDF91CF911F910F9108952F925C
:100DC0003F924F925F926F927F928F929F92AF92DB
:100DD000BF92CF92DF92EF92FF920F931F93CF9328
:100DE000DF93CDB7DEB72C970FB6F894DEBF0FBEFA
:100DF000CDBF7C016B018A01FC01178216828381C1
:100E000081FFB0C1CE0101964C01F7019381F6013B
:100E100093FD859193FF81916F01882309F49EC111
:100E2000853239F493FD859193FF81916F0185326D
:100E300021F4B70190E0C7D1E8CF512C312C20E04C
:100E40002032A0F48B3269F030F4803259F08332D2
:100E500069F420612CC08D3239F0803339F421607F
:100E600026C02260246023C0286021C027FD27C03F
:100E700030ED380F3A3078F426FF06C0FAE05F9E76
:100E8000300D1124532E13C08AE0389E300D1124EA
:100E9000332E20620CC08E3221F426FD5FC1206407
:100EA00006C08C3611F4206802C0883641F4F60181
:100EB00093FD859193FF81916F018111C1CF982F8F
:100EC0009F7D9554933028F40C5F1F4FFFE3F98307
:100ED0000DC0833631F0833771F0833509F057C088
:100EE00021C0F801808189830E5F1F4F4424439401
:100EF000512C540114C03801F2E06F0E711CF8013E
:100F0000A080B18026FF03C0652D70E002C06FEFA6
:100F10007FEFC5012C874CD12C0183012C852F77C5
:100F2000222E16C03801F2E06F0E711CF801A0806D
:100F3000B18026FF03C0652D70E002C06FEF7FEF28
:100F4000C5012C872AD12C012C852068222E8301F3
:100F500023FC19C0832D90E048165906A0F4B70170
:100F600080E290E030D13A94F5CFF50127FC8591ED
:100F700027FE81915F01B70190E025D131103A94AD
:100F8000F1E04F1A51084114510479F7DEC084365C
:100F900011F0893631F5F80127FF07C060817181B2
:100FA000828193810C5F1F4F08C060817181882707
:100FB00077FD8095982F0E5F1F4F2F76B22E97FFEB
:100FC00009C090958095709561957F4F8F4F9F4F89
:100FD0002068B22E2AE030E0A40127D1A82EA8185C
:100FE00043C0853729F42F7EB22E2AE030E025C099
:100FF000F22FF97FBF2E8F36C1F018F4883579F0C3
:10100000ADC0803719F0883721F0A8C02F2F20619C
:10101000B22EB4FE0DC08B2D8460B82E09C024FF03
:101020000AC09F2F9660B92E06C028E030E005C0A8
:1010300020E130E002C020E132E0F801B7FE07C055
:1010400060817181828193810C5F1F4F06C0608136
:10105000718180E090E00E5F1F4FA401E6D0A82EC2
:10106000A818FB2DFF77BF2EB6FE0BC02B2D2E7FB1
:10107000A51450F4B4FE0AC0B2FC08C02B2D2E7E7D
:1010800005C07A2C2B2D03C07A2C01C0752C24FFAF
:101090000DC0FE01EA0DF11D8081803311F4297E1F
:1010A00009C022FF06C07394739404C0822F86780F
:1010B00009F0739423FD12C020FF06C05A2C73144C
:1010C00018F4530C5718732C731460F4B70180E2B2
:1010D00090E02C8778D073942C85F6CF731410F49D
:1010E000371801C0312C24FF11C0B70180E390E014
:1010F0002C8769D02C8522FF16C021FF03C088E50C
:1011000090E002C088E790E0B7010CC0822F86789B
:1011100051F021FD02C080E201C08BE227FD8DE28B
:10112000B70190E050D0A51430F4B70180E390E00F
:101130004AD05A94F8CFAA94F401EA0DF11D8081A7
:10114000B70190E040D0A110F6CF332009F45DCE76
:10115000B70180E290E037D03A94F7CFF70186816B
:10116000978102C08FEF9FEF2C960FB6F894DEBFE9
:101170000FBECDBFDF91CF911F910F91FF90EF90E8
:10118000DF90CF90BF90AF909F908F907F906F90A7
:101190005F904F903F902F900895FC010590615013
:1011A00070400110D8F7809590958E0F9F1F08957D
:1011B000FC016150704001900110D8F78095909526
:1011C0008E0F9F1F08950F931F93CF93DF93182FB8
:1011D000092FEB018B8181FD03C08FEF9FEF20C0B2
:1011E00082FF10C04E815F812C813D8142175307E1
:1011F0007CF4E881F9819F012F5F3F4F3983288379
:10120000108306C0E885F985812F1995892B29F768
:101210002E813F812F5F3F4F3F832E83812F902F61
:10122000DF91CF911F910F910895FA01AA272830DD
:1012300051F1203181F1E8946F936E7F6E5F7F4FA3
:101240008F4F9F4FAF4FB1E03ED0B4E03CD0670F1F
:10125000781F891F9A1FA11D680F791F8A1F911D72
:10126000A11D6A0F711D811D911DA11D20D009F4C2
:1012700068943F912AE0269F11243019305D319304
:10128000DEF6CF010895462F4770405D4193B3E0ED
:101290000FD0C9F7F6CF462F4F70405D4A3318F094
:1012A000495D31FD4052419302D0A9F7EACFB4E045
:1012B000A6959795879577956795BA95C9F70097FD
:1012C0006105710508959B01AC010A2E069457959E
:1012D000479537952795BA95C9F7620F731F841FF5
:0A12E000951FA01D0895F894FFCF9C
:0E12EA0001010154253033643B0025753B00A3
:00000001FF
