S01300004E657750726F6A656374322E73726563DE
S113000071C000008FC000008DC000008BC00000D4
S113001089C0000087C0000085C0000083C00000C4
S113002081C000007FC000007DC000007BC00000D4
S113003079C0000077C0000075C0000073C00000E4
S113004071C0000069C100006DC000006BC00000F9
S113005069C0000067C0000065C0000063C0000004
S113006061C000007BC600005DC000005BC00000F2
S113007059C0000057C0000055C0000053C0000024
S113008051C000004FC000004DC000004BC0000034
S113009049C0000047C0000045C0000043C0000044
S11300A041C000003FC000003DC000003BC0000054
S11300B039C0000037C0000035C0000033C0000064
S11300C031C000002FC000002DC000002BC0000074
S11300D029C0000027C0000025C0000023C0000084
S11300E021C0000011241FBECFEFD1E2DEBFCDBF7F
S11300F000E00CBF12E0A0E0B2E0EAECF3E100E0C3
S11301000BBF02C007900D92AC30B107D9F72EE0B7
S1130110ACE0B2E001C01D92A837B207E1F771D597
S11301200C94E3096DCF81E090E0CBC5089582E0A3
S113013090E0C7C5089583E090E0C3D563C50895F2
S11301400F931F93F9D58EE0D8D560E070E083E972
S113015090E0B2D100E010E024E130E042E350E06E
S113016060E070E087E990E0D9D160E070E08BE96D
S113017090E0BBD180E090E01F910F910895FFCFF4
S1130180FF93FCB7FF93FFB7F894FF93EF93DF93CC
S1130190CF93BF93AF939F938F937F936F935F930B
S11301A04F933F932F931F930F93FF92EF92DF92FE
S11301B0CF92BF92AF929F928F927F926F925F92F3
S11301C04F923F922F921F920F928DB79EB79093AA
S11301D0E80B8093E70BE091E90BF091EA0BF395C0
S11301E0808191819EBF8DBF0F901F902F903F9073
S11301F04F905F906F907F908F909F90AF90BF9043
S1130200CF90DF90EF90FF900F911F912F913F912E
S11302104F915F916F917F918F919F91AF91BF911A
S1130220CF91DF91EF91FF91FFBFFF91FCBFFF9151
S11302300895FF93FCB7FF93FFB7F894FF93EF93F0
S1130240DF93CF93BF93AF939F938F937F936F93DA
S11302505F934F933F932F931F930F93FF92EF92CC
S1130260DF92CF92BF92AF929F928F927F926F92C2
S11302705F924F923F922F921F920F92E091E90B5F
S1130280F091EA0B8DB79EB7F395918380838091AB
S1130290E70B9091E80B9EBF8DBF0F901F902F909E
S11302A03F904F905F906F907F908F909F90AF9012
S11302B0BF90CF90DF90EF90FF900F911F912F91FF
S11302C03F914F915F916F917F918F919F91AF91EA
S11302D0BF91CF91DF91EF91FF91FFBFFF91FCBFE1
S11302E0FF910895FC0180819181009751F0DC0118
S11302F0AD5EBE4F2D913C911197318320831D92A9
S11303001C920895CF93CFB7F89483E08093290289
S113031090DFCFBFCF910895FF93FCB7FF93FFB752
S1130320F894F068FF93EF93DF93CF93BF93AF9369
S11303309F938F937F936F935F934F933F932F93E9
S11303401F930F93FF92EF92DF92CF92BF92AF92DF
S11303509F928F927F926F925F924F923F922F92D1
S11303601F920F92E091E90BF091EA0B8DB79EB7C3
S1130370F395918380838091E70B9091E80B9EBF66
S11303808DBF81E0809329028091EB0B9091EC0B5F
S113039005969093EC0B8093EB0BE8E8F0E08081FA
S11303A09181805F984D918380838091E70B909138
S11303B0E80B9EBF8DBF0F901F902F903F904F90E2
S11303C05F906F907F908F909F90AF90BF90CF90F1
S11303D0DF90EF90FF900F911F912F913F914F91DC
S11303E05F916F917F918F919F91AF91BF91CF91C9
S11303F0DF91EF91FF91FFBFFF91FCBFFF91089543
S1130400F89480EF84B980910002811105C0309185
S113041000023F5F40E603C03091000240E970EF04
S113042064E62AE054E175B9862F9FE7A8E3E1E08A
S11304309150A040E040E1F700C000008150A9F7CE
S113044015B888E2FFE798E3A1E0F1509040A0409E
S1130450E1F700C000008150A9F7332359F190E07F
S113046045B9822FEFE7F8E3A1E0E150F040A04066
S1130470E1F700C000008150A9F715B8822FEFE71B
S1130480F8E3A1E0E150F040A040E1F700C0000033
S11304908150A9F79F5F9313E3CF0CC0EFE7F8E314
S11304A091E0E150F0409040E1F700C0000081503D
S11304B0A9F7B9CF852FF2CFCF93CFB7F894909304
S11304C01F0280931E02709321026093200283E036
S11304D08093220282E080932902ABDE80911C0289
S11304E090911D02CFBFCF910895CF93CFB7F894C9
S11304F090931F0280931E02709321026093200246
S113050081E08093220282E08093290292DE80912E
S11305101C0290911D02CFBFCF9108950F931F939A
S1130520CF93CFB7F89490931F0280931E027093D9
S113053021026093200282E08093220250932402DD
S1130540409323021093280200932702309326023B
S113055020932502809329026CDE80911C029091E5
S11305601D02CFBFCF911F910F9108952091840058
S1130570309185008091880090918900205F384DEA
S1130580281B390B329522952F7023273F70232780
S1130590A3E6B0E133D4969587959695879596957D
S11305A087952091EB0B3091EC0B820F931F0895EC
S11305B00F931F93CF93DF938C01EB01FB01ED5E4F
S11305C0FE4F11821082DC018D919C911197892B31
S11305D041F411967C936E9313967C936E931297C9
S11305E073C0FB01EB5FFE4F8081823009F05FC076
S11305F0BDDFF801208131812115310509F457C08F
S1130600FE01EA5FFE4F0190F081E02DDE01A65F5E
S1130610BE4F4D915C911197E40FF51F12964D91C9
S11306205C91E40FF51FE81BF90BD901AA5FBE4FDB
S11306306D917C91119714964D915C911197460F91
S1130640571F12966D917C91460F571F481B590BEB
S1130650E417F50720F516C0D901AA5FBE4F6D91C6
S11306607C91119714964D915C911197460F571FE9
S113067012966D917C91460F571F481B590BE41736
S1130680F50768F4F901ED5EFE4F80819181DE018A
S1130690AD5EBE4F8D939C93D183C08315C0D901A9
S11306A0AD5EBE4F2D913C9121153105A9F6D801BF
S11306B01296ED91FC911397ED5EFE4FD183C083AA
S11306C01396DC93CE931297DF91CF911F910F91E4
S11306D008958091180290911902892B09F484C01D
S11306E080912202882329F088E192E0FBDDBC019D
S11306F002C062ED7AE0FB01E752FF4F10828EEEFA
S11307007E96808380E83196808332961082EEE173
S1130710F2E080819181DB01A550BF4F9C938081E1
S11307209181FB01E450FF4F80833196108282E86F
S113073091E031969083319680833196CB01895232
S11307409F4F9183808382E0329680838091200240
S11307509091210231969183808380912202329676
S11307608083823031F58091270290912802E3E260
S1130770F2E0208131811F96821B930B8D939C9311
S113078080819181FB01EA5FFE4F91838083809198
S113079025029091260232969183808337961182A6
S11307A0108232961182108235971182108232960D
S11307B0108280912202823029F0833049F0813006
S11307C0B1F40CC08CE092E0F3DE81E090E0089597
S11307D080E192E0EDDE81E090E0089584E192E032
S11307E0E7DE81E090E0089580E090E0089581E004
S11307F090E00895E1E8F0E0808182608083ECE29B
S1130800F3E02FEB3AE01082CF014396928B818B79
S1130810EB5EFE4FE217F307B1F71092D10A109284
S1130820D00A0F2EFAE2EF2EF2E0FF2EF02DF09216
S11308301902E09218028DEB99E090931B028093C9
S11308401A020EE112E08FEB90E0F80191838083AD
S1130850C2E2D2E018823DDF80EA90E0F8019183A1
S1130860808383E0888335DFF092EA0BE092E90B22
S113087081E080932C0380E192E034DDEFE6F0E048
S11308808081826080838091840090918500805F64
S1130890984D909389008093880082E086BBC0E1E4
S11308A0D2E0772473940CE012E00F2EF4E1EF2EE3
S11308B0F2E0FF2EF02D0F2EF2EDAF2EFAE0BF2E58
S11308C0F02D0F2EF2E2CF2EF2E0DF2EF02D689401
S11308D0662461F88091E90B9091EA0BFC01EE5FCC
S11308E0FE4F2081213021F4825D9A4009F07AC0C4
S11308F03DDE4C0188819981892B39F0CE01F2DCEF
S11309009093EA0B8093E90B66C0F8018081918192
S1130910009709F450C0FC01E45FFE4F208131814F
S1130920A401421B530B9A013697DC01A65FBE4F0C
S1130930408151818D919C91840F951F281739070F
S1130940D0F1C801CFDC9093EA0B8093E90BFC0152
S1130950E45FFE4FDC01AA5FBE4F4D915C9111979D
S113096020813181240F351F14964D915C91240F01
S1130970351F31832083359691828082F8018081EE
S11309809181009741F1FC01E45FFE4F20813181A8
S1130990821A930A3697DC01A65FBE4F208131810B
S11309A08D919C91820F931F88169906A0F086E082
S11309B08093000225DDF70180819181892B39F034
S11309C0C70190DC9093EA0B8093E90B04C0B092CA
S11309D0EA0BA092E90BE091E90BF091EA0BEE5FD0
S11309E0FE4F7082CDDB80912902823009F44AC027
S11309F030F4882309F4EDC0813051F0E6C084302E
S1130A0009F4A0C008F48DC0853009F4E2C0DDC04B
S1130A108090E90B9090EA0B8114910411F1F40198
S1130A20EB5FFE4F80818230E1F433978081813027
S1130A3009F0CFC09BDDF401E15FFE4F20813181DD
S1130A40329640815181241B350B820F931F3997B5
S1130A50408151814817590720F483E080930002B4
S1130A60CFDCF401EB5FFE4F8081813009F0B1C02F
S1130A7033978081813009F0ACC06082B401C70132
S1130A8097DDA7C026DE90931D0280931C028091FF
S1130A901C0290911D02892B09F49BC0F6018081F0
S1130AA0833059F58090E90B9090EA0BF401EB5FE9
S1130AB0FE4F8081833009F08FC08BC057DDF40175
S1130AC0E15FFE4FD401AF5EBE4F208131814D9175
S1130AD05C911197241B350B820F931F91838083A4
S1130AE033971B97808191812D913C91821B930BAD
S1130AF091838083B401C8015BDD6091E90B70913F
S1130B00EA0BFB01EB5FFE4F8081813009F061C08D
S1130B10F6018081823009F06DC068C0C70148DDEC
S1130B2058C06091E90B7091EA0BFAE0623D7F07CF
S1130B3009F44FC0FB01EE5FFE4F108288E192E0A2
S1130B4037DD47C08090E90B9090EA0BF401EB5F2E
S1130B50FE4F8081823049F0833019F0813081F575
S1130B602CC0B401CE0124DD2BC000DDF401E15F13
S1130B70FE4F20813181329640815181241B350BF7
S1130B80820F931F3997408151814817590720F4E8
S1130B9083E08093000234DCF401E15FFE4F1182B4
S1130BA0108231978081811104C070823497118240
S1130BB01082B401C801FCDC03C0B401C701F8DC35
S1130BC0F401EE5FFE4F608204C085E08093000272
S1130BD017DC109229027ECEF401EE5FFE4F608294
S1130BE033968081823009F088CF68CFFB01EE5FB5
S1130BF0FE4F6082FB01EE5FFE4F8081823049F739
S1130C008DCFF8DDCF92DF92EF92FF920F931F9377
S1130C10CF93DF938091100E1F928F9381E092E027
S1130C209F938F938DEE9BE09F938F930AD1BC018A
S1130C308DEE9BE07DD080910D0C90910E0C0F9069
S1130C400F900F900F900F900F90181619064CF5F7
S1130C50CFE0DCE0E12CF12C0F2EF8E0CF2EF2E017
S1130C60DF2EF02D0DEE1BE08881998122969F9353
S1130C708F93DF92CF921F930F93E3D0BC01C801EF
S1130C8057D08FEFE81AF80A80910D0C90910E0C52
S1130C900F900F900F900F900F900F90E816F90699
S1130CA01CF381E080930F0E10920E0C10920D0C29
S1130CB0DF91CF911F910F91FF90EF90DF90CF9034
S1130CC0089520910D0C30910E0C2F3F310509F041
S1130CD098F4E0910D0CF0910E0CEE0FFF1FE15F04
S1130CE0F34F9183808380910D0C90910E0C0196AB
S1130CF090930E0C80930D0C08958093100E08951C
S1130D00F894E0ECF0E0908195FFFDCF8093C6006D
S1130D1078940895CF93DF93EC018881882329F098
S1130D202196EEDF89918111FCCFDF91CF91089557
S1130D30F1DF80E090E008951092770E1092760E25
S1130D401092110E1092C50087E68093C40088E9C2
S1130D508093C1008EE08093C20008951F920F9289
S1130D600FB60F9211240BB60F925F936F937F937C
S1130D708F939F93AF93BF93EF93FF93E0ECF0E0D7
S1130D8080818823ECF7E091760EF091770E8091C4
S1130D90C600EE5EF14F80838091760E9091770EBF
S1130DA0019664E670E017D09093770E8093760EE8
S1130DB081E08093110EFF91EF91BF91AF919F91CC
S1130DC08F917F916F915F910F900BBE0F900FBE2B
S1130DD00F901F90189597FB072E16F4009406D0D9
S1130DE077FD08D01AD007FC05D03EF49095819584
S1130DF09F4F0895709561957F4F0895A29FB0010C
S1130E00B39FC001A39F700D811D1124911DB29F3A
S1130E10700D811D1124911D0895AA1BBB1B51E166
S1130E2007C0AA1FBB1FA617B70710F0A61BB70B56
S1130E30881F991F5A95A9F780959095BC01CD01FB
S1130E4008950F931F93CF93DF93CDB7DEB72E97FB
S1130E500FB6F894DEBF0FBECDBF0E891F8986E0A2
S1130E608C831A8309838FEF9FE79E838D83AE0162
S1130E70465E5F4F688D798DCE01019610D0EF816B
S1130E80F885E00FF11F10822E960FB6F894DEBF9E
S1130E900FBECDBFDF91CF911F910F9108952F9277
S1130EA03F924F925F926F927F928F929F92AF92F6
S1130EB0BF92CF92DF92EF92FF920F931F93CF9343
S1130EC0DF93CDB7DEB72C970FB6F894DEBF0FBE15
S1130ED0CDBF7C016B018A01FC01178216828381DC
S1130EE081FFB0C1CE0101964C01F7019381F60157
S1130EF093FD859193FF81916F01882309F49EC12D
S1130F00853239F493FD859193FF81916F01853288
S1130F1021F4B70190E0C7D1E8CF512C312C20E067
S1130F202032A0F48B3269F030F4803259F08332ED
S1130F3069F420612CC08D3239F0803339F421609A
S1130F4026C02260246023C0286021C027FD27C05A
S1130F5030ED380F3A3078F426FF06C0FAE05F9E91
S1130F60300D1124532E13C08AE0389E300D112405
S1130F70332E20620CC08E3221F426FD5FC1206422
S1130F8006C08C3611F4206802C0883641F4F6019C
S1130F9093FD859193FF81916F018111C1CF982FAA
S1130FA09F7D9554933028F40C5F1F4FFFE3F98322
S1130FB00DC0833631F0833771F0833509F057C0A3
S1130FC021C0F801808189830E5F1F4F442443941C
S1130FD0512C540114C03801F2E06F0E711CF80159
S1130FE0A080B18026FF03C0652D70E002C06FEFC2
S1130FF07FEFC5012C874CD12C0183012C852F77E1
S1131000222E16C03801F2E06F0E711CF801A08088
S1131010B18026FF03C0652D70E002C06FEF7FEF43
S1131020C5012C872AD12C012C852068222E83010E
S113103023FC19C0832D90E048165906A0F4B7018B
S113104080E290E030D13A94F5CFF50127FC859108
S113105027FE81915F01B70190E025D131103A94C8
S1131060F1E04F1A51084114510479F7DEC0843677
S113107011F0893631F5F80127FF07C060817181CD
S1131080828193810C5F1F4F08C060817181882722
S113109077FD8095982F0E5F1F4F2F76B22E97FF06
S11310A009C090958095709561957F4F8F4F9F4FA4
S11310B02068B22E2AE030E0A40127D1A82EA81877
S11310C043C0853729F42F7EB22E2AE030E025C0B4
S11310D0F22FF97FBF2E8F36C1F018F4883579F0DE
S11310E0ADC0803719F0883721F0A8C02F2F2061B8
S11310F0B22EB4FE0DC08B2D8460B82E09C024FF1F
S11311000AC09F2F9660B92E06C028E030E005C0C3
S113111020E130E002C020E132E0F801B7FE07C070
S113112060817181828193810C5F1F4F06C0608151
S1131130718180E090E00E5F1F4FA401E6D0A82EDD
S1131140A818FB2DFF77BF2EB6FE0BC02B2D2E7FCC
S1131150A51450F4B4FE0AC0B2FC08C02B2D2E7E98
S113116005C07A2C2B2D03C07A2C01C0752C24FFCA
S11311700DC0FE01EA0DF11D8081803311F4297E3A
S113118009C022FF06C07394739404C0822F86782A
S113119009F0739423FD12C020FF06C05A2C731467
S11311A018F4530C5718732C731460F4B70180E2CD
S11311B090E02C8778D073942C85F6CF731410F4B8
S11311C0371801C0312C24FF11C0B70180E390E02F
S11311D02C8769D02C8522FF16C021FF03C088E527
S11311E090E002C088E790E0B7010CC0822F8678B7
S11311F051F021FD02C080E201C08BE227FD8DE2A7
S1131200B70190E050D0A51430F4B70180E390E02A
S11312104AD05A94F8CFAA94F401EA0DF11D8081C2
S1131220B70190E040D0A110F6CF332009F45DCE91
S1131230B70180E290E037D03A94F7CFF701868186
S1131240978102C08FEF9FEF2C960FB6F894DEBF04
S11312500FBECDBFDF91CF911F910F91FF90EF9003
S1131260DF90CF90BF90AF909F908F907F906F90C2
S11312705F904F903F902F900895FC01059061502E
S113128070400110D8F7809590958E0F9F1F089598
S1131290FC016150704001900110D8F78095909541
S11312A08E0F9F1F08950F931F93CF93DF93182FD3
S11312B0092FEB018B8181FD03C08FEF9FEF20C0CD
S11312C082FF10C04E815F812C813D8142175307FC
S11312D07CF4E881F9819F012F5F3F4F3983288394
S11312E0108306C0E885F985812F1995892B29F784
S11312F02E813F812F5F3F4F3F832E83812F902F7D
S1131300DF91CF911F910F910895FA01AA272830F8
S113131051F1203181F1E8946F936E7F6E5F7F4FBE
S11313208F4F9F4FAF4FB1E03ED0B4E03CD0670F3A
S1131330781F891F9A1FA11D680F791F8A1F911D8D
S1131340A11D6A0F711D811D911DA11D20D009F4DD
S113135068943F912AE0269F11243019305D31931F
S1131360DEF6CF010895462F4770405D4193B3E008
S11313700FD0C9F7F6CF462F4F70405D4A3318F0AF
S1131380495D31FD4052419302D0A9F7EACFB4E060
S1131390A6959795879577956795BA95C9F7009718
S11313A06105710508959B01AC010A2E06945795B9
S11313B0479537952795BA95C9F7620F731F841F10
S10D13C0951FA01D0895F894FFCFB7
S10F13CA0154253033643B0025753B00C2
S9030000FC
