:100000007AC0000098C0000096C0000094C00000B4
:1000100092C0000090C000008EC000008CC00000A4
:100020008AC0000088C0000086C0000084C00000B4
:1000300082C0000080C000007EC000007CC00000C4
:100040007AC00000A2C1000076C0000074C00000A9
:1000500072C0000070C000006EC000006CC00000E4
:100060006AC0000057C7000066C0000064C00000FE
:1000700062C0000060C000005EC000005CC0000004
:100080005AC0000058C0000056C0000054C0000014
:1000900052C0000050C000004EC000004CC0000024
:1000A0004AC0000048C0000046C0000044C0000034
:1000B00042C0000040C000003EC000003CC0000044
:1000C0003AC0000038C0000036C0000034C0000054
:1000D00032C0000030C000002EC000002CC0000064
:1000E0002AC00000A8061C055605A405B505A806EB
:1000F000F7050B06320611241FBECFEFD1E2DEBF9B
:10010000CDBF00E00CBF12E0A0E0B2E0EEE8F5E108
:1001100000E00BBF02C007900D92AE30B107D9F7D7
:100120002EE0AEE0B2E001C01D92A23BB207E1F7C3
:1001300044D60C94C50A64CF8091010280FF04C0AC
:100140008091010290E099D612D2809101028F5FD6
:1001500080930102F1CF8091000280FD04C0809164
:10016000000290E08AD6809100028A3011F426C6FF
:100170000895FDD1809100028F5F80930002EBCF44
:100180000F931F93B5D688E094D60AE010E024E6DA
:1001900030E044E150E060E070E08CE990E0BFD1F5
:1001A00004E110E024E630E044E150E060E070E07B
:1001B0008BEA90E0B4D180E090E01F910F91089518
:1001C000FFCFFF93FCB7FF93FFB7F894FF93EF9334
:1001D000DF93CF93BF93AF939F938F937F936F934F
:1001E0005F934F933F932F931F930F93FF92EF9241
:1001F000DF92CF92BF92AF929F928F927F926F9237
:100200005F924F923F922F921F920F928DB79EB79F
:100210009093220C8093210CE091230CF091240CFC
:10022000F395808191819EBF8DBF0F901F902F907D
:100230003F904F905F906F907F908F909F90AF9086
:10024000BF90CF90DF90EF90FF900F911F912F9173
:100250003F914F915F916F917F918F919F91AF915E
:10026000BF91CF91DF91EF91FF91FFBFFF91FCBF55
:10027000FF910895FF93FCB7FF93FFB7F894FF93A6
:10028000EF93DF93CF93BF93AF939F938F937F931E
:100290006F935F934F933F932F931F930F93FF920F
:1002A000EF92DF92CF92BF92AF929F928F927F9206
:1002B0006F925F924F923F922F921F920F92E09116
:1002C000230CF091240C8DB79EB7F3959183808316
:1002D0008091210C9091220C9EBF8DBF0F901F909A
:1002E0002F903F904F905F906F907F908F909F9056
:1002F000AF90BF90CF90DF90EF90FF900F911F9144
:100300002F913F914F915F916F917F918F919F912D
:10031000AF91BF91CF91DF91EF91FF91FFBFFF911F
:10032000FCBFFF910895FC01DB01AB5EBE4F1D9247
:100330001C9280819181892B29F47183608373835E
:1003400062830895A281B381AB5EBE4F6D937C93AF
:10035000738362830895FC0180819181009751F03D
:10036000DC01AB5EBE4F2D913C9111973183208310
:100370001D921C920895CF93CFB7F89483E0809399
:10038000510278DFCFBFCF910895FF93FCB7FF9361
:10039000FFB7F894F068FF93EF93DF93CF93BF9389
:1003A000AF939F938F937F936F935F934F933F93FD
:1003B0002F931F930F93FF92EF92DF92CF92BF92F2
:1003C000AF929F928F927F926F925F924F923F92E5
:1003D0002F921F920F92E091230CF091240C8DB775
:1003E0009EB7F395918380838091210C9091220C8C
:1003F0009EBF8DBF81E0809351028091250C90912A
:10040000260C05969093260C8093250CE8E8F0E0E6
:1004100080819181805F984D918380838091210CB0
:100420009091220C9EBF8DBF0F901F902F903F90F8
:100430004F905F906F907F908F909F90AF90BF9004
:10044000CF90DF90EF90FF900F911F912F913F91F0
:100450004F915F916F917F918F919F91AF91BF91DC
:10046000CF91DF91EF91FF91FFBFFF91FCBFFF9113
:100470000895F89480EF84B980910E0230910E02B5
:100480003F5F70EF64E640E92AE054E175B9862FDA
:100490009FE7A8E3E1E09150A040E040E1F700C011
:1004A00000008150A9F715B888E2FFE798E3A1E0C2
:1004B000F1509040A040E1F700C000008150A9F742
:1004C000332359F190E045B9822FEFE7F8E3A1E03B
:1004D000E150F040A040E1F700C000008150A9F7D2
:1004E00015B8822FEFE7F8E3A1E0E150F040A0401B
:1004F000E1F700C000008150A9F79F5F3913E3CFF7
:100500000CC0EFE7F8E391E0E150F0409040E1F7F4
:1005100000C000008150A9F7B9CF852FF2CF0F930B
:100520001F93CF93CFB7F8949093470280934602DE
:10053000709349026093480282E080934A0250938C
:100540004C0240934B021093500200934F023093A1
:100550004E0220934D02809351028CDE8091440222
:1005600090914502CFBFCF911F910F910895CF93E6
:10057000DF931F92CDB7DEB78FB78983F89484E0FD
:100580008093510277DE89818FBF0F90DF91CF91E9
:100590000895209184003091850080918800909189
:1005A0008900205F384D281B390B329522952F701A
:1005B00023273F702327A3E6B0E102D596958795C0
:1005C00096958795969587952091250C3091260CC8
:1005D000820F931F0895CF93DF93EC01FC01EB5E34
:1005E000FE4F1182108280910F0290911002892B90
:1005F00049F4D0931002C0930F02D0931202C0931B
:1006000011026BC0FE01EB5FFE4F8081823009F06A
:1006100058C0BFDF20910F02309110022115310523
:1006200009F44FC0FE01E85FFE4FA081B18134960E
:1006300040815181A40FB51F329640815181A40F92
:10064000B51FA81BB90BF901E85FFE4F60817181EE
:10065000349640815181460F571F329660817181D7
:10066000460F571F481B590BA417B50710F514C0A8
:10067000F901E85FFE4F60817181349640815181BC
:10068000460F571F329660817181460F571F481BD6
:10069000590BA417B50768F4F901EB5EFE4F808192
:1006A0009181DE01AB5EBE4F8D939C93D183C0835D
:1006B00014C0F901EB5EFE4F208131812115310517
:1006C000B9F6E0911102F0911202EB5EFE4FD18378
:1006D000C083D0931202C0931102DF91CF9108958D
:1006E00080911B0290911C02892B09F498C0809183
:1006F0004A02882321F08BE192E02DDE02C08AE0DD
:100700009BE0FC01E752FF4F10822EEE7E96208385
:1007100020E83196208332961082E6E4F2E02081D0
:100720003181DC01A550BF4F3C9320813181FC0118
:10073000E450FF4F2083319610822BEB31E031964D
:1007400030833196208331969C0129523F4F31836B
:10075000208322E032962083209148023091490282
:1007600031963183208320914A02329620832230B1
:10077000D9F520914F0230915002EBE4F2E0408134
:1007800051815196241B350BA901440F551F440F6D
:10079000551F240F351F2D933C9320813181FC017F
:1007A000E85FFE4FA901440F551F440F551F240F4A
:1007B000351F3183208320914D0230914E023296B5
:1007C000A901440F551F440F551F240F351F3183B6
:1007D00020833796118210823296118210823597CB
:1007E000118210823296108220914A02223029F022
:1007F000233039F02130B1F40BC0EDDE81E090E020
:100800000895BC0183E192E08EDD81E090E00895DF
:10081000BC0187E192E087DD81E090E0089580E00F
:1008200090E0089581E090E00895E1E8F0E08081B3
:1008300082608083E4E5F3E025EF3AE01082CF01A7
:100840004596948B838BE95EFE4FE217F307B1F771
:100850001092090B1092080B0F2EF2E5EF2EF2E02A
:10086000FF2EF02DF0921C02E0921B0283EF99E024
:1008700090931E0280931D0206E412E080EE90E049
:10088000F80191838083CAE4D2E0188229DF80ECEA
:1008900090E0F8019183808383E0888321DFF092E8
:1008A000240CE092230C81E08093540383E192E0D6
:1008B00052DDEFE6F0E080818260808380918400E9
:1008C00090918500805F984D909389008093880077
:1008D00082E086BB0F2EF3E1EF2EF2E0FF2EF02D2B
:1008E000882483940F2EFFE0AF2EF2E0BF2EF02D70
:1008F00007E112E00F2EFAE02F2EFBE03F2EF02D45
:100900000F2EF2E4CF2EF2E0DF2EF02D912C582C9A
:100910003E018091230C9091240CFC01EE5FFE4F70
:100920002081213021F48A509B4009F079C08091C8
:100930000202811110C274C0C7010DDD9093240C16
:100940008093230C66C0F50180819181009709F4A2
:1009500050C0FC01E25FFE4F20813181AE01421B9D
:10096000530B9A013697DC01A45FBE4F4081518141
:100970008D919C91840F951F28173907D0F1C501DF
:10098000EADC9093240C8093230CFC01E25FFE4F81
:10099000DC01A85FBE4F4D915C91119720813181A0
:1009A000240F351F14964D915C91240F351F318310
:1009B00020833596D183C083F50180819181009792
:1009C00041F1FC01E25FFE4F20813181C21BD30B5C
:1009D0003697DC01A45FBE4F208131818D919C91BF
:1009E000820F931FC817D907A0F085E080930E02ED
:1009F00040DDF80180819181892B39F0C801ABDCA1
:100A00009093240C8093230C04C03092240C2092E9
:100A1000230CE091230CF091240CEE5FFE4F8082BA
:100A2000D0DB8091510290E08930910508F08CC1B3
:100A3000FC01EE58FF4FBEC2C091230CD091240C94
:100A4000209711F1FE01EB5FFE4F80818230E1F4CF
:100A500033978081813009F07BC19BDDFE01EF5E21
:100A6000FE4F20813181329640815181241B350B0C
:100A7000820F931F3997408151814817590720F4FD
:100A800082E080930E02F5DCFE01EB5FFE4F808179
:100A9000813009F05DC133978081813009F058C100
:100AA00022E02083BE01C8013EDC52C119DE9093D2
:100AB0004502809344028091440290914502892B23
:100AC00009F446C1F3018081833051F5C091230CB4
:100AD000D091240CFE01EB5FFE4F8081833009F042
:100AE00043C136C156DDFE01EF5EFE4FDE01AD5E55
:100AF000BE4F208131814D915C911197241B350BA4
:100B0000820F931F9183808333971B9780819181FC
:100B10002D913C91821B930B91838083CE015BDDF1
:100B20006091230C7091240CFB01EB5FFE4F8081E0
:100B3000813009F00DC1F3018081823009F036C1A6
:100B40001EC1C801F0DB04C16091230C7091240C1C
:100B5000FBE06A307F0709F4FBC0FB01EE5FFE4F4C
:100B600010828BE192E0DFDBF3C0C091230CD091C7
:100B7000240CFE01EB5FFE4F8081823049F0833010
:100B800019F0813079F52BC0BE01C701CCDB2AC03A
:100B900000DDFE01EF5EFE4F208131813296408103
:100BA0005181241B350B820F931F3997408151814E
:100BB0004817590720F482E080930E025ADCFE01A8
:100BC000EF5EFE4F1182108231978081811104C047
:100BD0008082349711821082CE01FDDC03C0BE01F9
:100BE000C801A1DBCE5FDE4F22E02883B1C01092A6
:100BF00043021092420220913F02283008F0A8C020
:100C0000822F90E0019690934302809342022F5FDF
:100C100020933F029DC06091230C7091240CFB0136
:100C2000EB5FFE4F80818230C9F0F60180818150F8
:100C300090913F02891720F087E080930E0219DC23
:100C4000FB01EE5FFE4F23E0208390E0880F991FA9
:100C5000880F991F815E9D4F66DB7AC086E0809386
:100C60000E0207DCF601C081C15080913F02C81717
:100C700048F4492CD0E0CC0FDD1FCC0FDD1FC15E46
:100C8000DD4F30C087E080930E02F3DBCE0163DBE3
:100C9000FC01EA5FFE4F0190F081E02D20914002BF
:100CA0003091410231832083FC01EB5FFE4F2081B4
:100CB000233069F4BC01C70136DBE091230CF091CD
:100CC000240CEB5FFE4F8081833059F40BC022303F
:100CD00021F487E080930E02CCDBBC01C80123DB4A
:100CE00001C0452C88819981892B81F6442081F1AE
:100CF00080910202811149C02BC04BDCFE01EF5EE6
:100D0000FE4FDE01AD5EBE4F208131814D915C9181
:100D10001197241B350B820F931F91838083339788
:100D20001B97808191812D913C91821B930B918324
:100D30008083CE0150DC0CC0BE01C801F4DA08C0CB
:100D400084E080930E0295DB84E080930E0291DBB9
:100D500090925102DECD1DDCEC01F7018081918182
:100D6000892B09F0E9CDEFCDFE01EE5FFE4F22E0C9
:100D7000208333968081823009F0D2CEB3CEFB013E
:100D8000EE5FFE4F42E0408311C0C091230CD09132
:100D9000240CFE01EE5FFE4F52E0508333968081BB
:100DA000813051F2823009F4A8CFCACFFB01EE5F47
:100DB000FE4F8081823061F6C4CE37DDCF92DF9264
:100DC000EF92FF920F931F93CF93DF9380914A0E80
:100DD0001F928F9383E092E09F938F9387E29CE032
:100DE0009F938F9310D1BC0187E29CE07DD08091CE
:100DF000470C9091480C0F900F900F900F900F9010
:100E00000F90181619064CF5C9E4DCE0E12CF12C22
:100E10000F2EFAE0CF2EF2E0DF2EF02D07E21CE0DD
:100E20008881998122969F938F93DF92CF921F930F
:100E30000F93E9D0BC01C80157D08FEFE81AF80A28
:100E40008091470C9091480C0F900F900F900F904D
:100E50000F900F90E816F9061CF381E08093490E7D
:100E60001092480C1092470CDF91CF911F910F9177
:100E7000FF90EF90DF90CF9008952091470C309134
:100E8000480C2F3F310509F098F4E091470CF091A0
:100E9000480CEE0FFF1FE75BF34F91838083809137
:100EA000470C9091480C01969093480C8093470C06
:100EB000089580934A0E0895F894E0ECF0E0908154
:100EC00095FFFDCF8093C60078940895CF93DF936C
:100ED000EC018881882329F02196EEDF8991811128
:100EE000FCCFDF91CF910895F1DF80E090E008958D
:100EF0001092B10E1092B00E10924B0E1092C500CF
:100F000087E68093C40088E98093C1008EE08093D7
:100F1000C20008951F920F920FB60F9211240BB6C4
:100F20000F925F936F937F938F939F93AF93BF9332
:100F3000EF93FF93E0ECF0E080818823ECF7E09101
:100F4000B00EF091B10E8091C600E45BF14F80834A
:100F50008091B00E9091B10E019664E670E017D0CA
:100F60009093B10E8093B00E81E080934B0EFF9171
:100F7000EF91BF91AF919F918F917F916F915F9111
:100F80000F900BBE0F900FBE0F901F90189597FB00
:100F9000072E16F4009406D077FD08D020D007FC69
:100FA00005D03EF4909581959F4F08957095619579
:100FB0007F4F0895EE0FFF1F0590F491E02D1994D7
:100FC000A29FB001B39FC001A39F700D811D11248A
:100FD000911DB29F700D811D1124911D0895AA1BB2
:100FE000BB1B51E107C0AA1FBB1FA617B70710F014
:100FF000A61BB70B881F991F5A95A9F78095909546
:10100000BC01CD0108950F931F93CF93DF93CDB70C
:10101000DEB72E970FB6F894DEBF0FBECDBF0E8998
:101020001F8986E08C831A8309838FEF9FE79E8355
:101030008D83AE01465E5F4F688D798DCE0101963E
:1010400010D0EF81F885E00FF11F10822E960FB6B9
:10105000F894DEBF0FBECDBFDF91CF911F910F91EE
:1010600008952F923F924F925F926F927F928F924C
:101070009F92AF92BF92CF92DF92EF92FF920F9327
:101080001F93CF93DF93CDB7DEB72C970FB6F894AD
:10109000DEBF0FBECDBF7C016B018A01FC01178250
:1010A0001682838181FFB0C1CE0101964C01F70108
:1010B0009381F60193FD859193FF81916F018823C0
:1010C00009F49EC1853239F493FD859193FF819196
:1010D0006F01853221F4B70190E0C7D1E8CF512CE0
:1010E000312C20E02032A0F48B3269F030F48032D1
:1010F00059F0833269F420612CC08D3239F080338D
:1011000039F4216026C02260246023C0286021C0F9
:1011100027FD27C030ED380F3A3078F426FF06C09F
:10112000FAE05F9E300D1124532E13C08AE0389EE2
:10113000300D1124332E20620CC08E3221F426FD96
:101140005FC1206406C08C3611F4206802C0883666
:1011500041F4F60193FD859193FF81916F01811117
:10116000C1CF982F9F7D9554933028F40C5F1F4F6B
:10117000FFE3F9830DC0833631F0833771F0833597
:1011800009F057C021C0F801808189830E5F1F4F8D
:1011900044244394512C540114C03801F2E06F0EE2
:1011A000711CF801A080B18026FF03C0652D70E09E
:1011B00002C06FEF7FEFC5012C874CD12C0183015A
:1011C0002C852F77222E16C03801F2E06F0E711C8D
:1011D000F801A080B18026FF03C0652D70E002C039
:1011E0006FEF7FEFC5012C872AD12C012C85206859
:1011F000222E830123FC19C0832D90E04816590646
:10120000A0F4B70180E290E030D13A94F5CFF50137
:1012100027FC859127FE81915F01B70190E025D1E0
:1012200031103A94F1E04F1A51084114510479F702
:10123000DEC0843611F0893631F5F80127FF07C08A
:1012400060817181828193810C5F1F4F08C0608132
:101250007181882777FD8095982F0E5F1F4F2F761D
:10126000B22E97FF09C090958095709561957F4F3C
:101270008F4F9F4F2068B22E2AE030E0A40127D183
:10128000A82EA81843C0853729F42F7EB22E2AE055
:1012900030E025C0F22FF97FBF2E8F36C1F018F451
:1012A000883579F0ADC0803719F0883721F0A8C0B3
:1012B0002F2F2061B22EB4FE0DC08B2D8460B82E6E
:1012C00009C024FF0AC09F2F9660B92E06C028E0EF
:1012D00030E005C020E130E002C020E132E0F8015A
:1012E000B7FE07C060817181828193810C5F1F4FBF
:1012F00006C06081718180E090E00E5F1F4FA40105
:10130000E6D0A82EA818FB2DFF77BF2EB6FE0BC087
:101310002B2D2E7FA51450F4B4FE0AC0B2FC08C0D9
:101320002B2D2E7E05C07A2C2B2D03C07A2C01C0CC
:10133000752C24FF0DC0FE01EA0DF11D8081803364
:1013400011F4297E09C022FF06C07394739404C06F
:10135000822F867809F0739423FD12C020FF06C007
:101360005A2C731418F4530C5718732C731460F41C
:10137000B70180E290E02C8778D073942C85F6CF6B
:10138000731410F4371801C0312C24FF11C0B701B9
:1013900080E390E02C8769D02C8522FF16C021FFC6
:1013A00003C088E590E002C088E790E0B7010CC078
:1013B000822F867851F021FD02C080E201C08BE2CD
:1013C00027FD8DE2B70190E050D0A51430F4B701AD
:1013D00080E390E04AD05A94F8CFAA94F401EA0D41
:1013E000F11D8081B70190E040D0A110F6CF3320ED
:1013F00009F45DCEB70180E290E037D03A94F7CFA0
:10140000F7018681978102C08FEF9FEF2C960FB670
:10141000F894DEBF0FBECDBFDF91CF911F910F912A
:10142000FF90EF90DF90CF90BF90AF909F908F9004
:101430007F906F905F904F903F902F900895FC01A8
:101440000590615070400110D8F7809590958E0FEF
:101450009F1F0895FC016150704001900110D8F762
:10146000809590958E0F9F1F08950F931F93CF9394
:10147000DF93182F092FEB018B8181FD03C08FEFC4
:101480009FEF20C082FF10C04E815F812C813D8183
:10149000421753077CF4E881F9819F012F5F3F4F8A
:1014A00039832883108306C0E885F985812F199533
:1014B000892B29F72E813F812F5F3F4F3F832E835A
:1014C000812F902FDF91CF911F910F910895FA01F5
:1014D000AA27283051F1203181F1E8946F936E7F73
:1014E0006E5F7F4F8F4F9F4FAF4FB1E03ED0B4E064
:1014F0003CD0670F781F891F9A1FA11D680F791FA5
:101500008A1F911DA11D6A0F711D811D911DA11DB5
:1015100020D009F468943F912AE0269F11243019C5
:10152000305D3193DEF6CF010895462F4770405D60
:101530004193B3E00FD0C9F7F6CF462F4F70405D0F
:101540004A3318F0495D31FD4052419302D0A9F76A
:10155000EACFB4E0A6959795879577956795BA9564
:10156000C9F700976105710508959B01AC010A2E2A
:1015700006945795479537952795BA95C9F7620F01
:0E158000731F841F951FA01D0895F894FFCFC0
:0E158E0001010154253033643B0025753B00FC
:00000001FF
