S01300004E657750726F6A656374322E73726563DE
S113000071C000008FC000008DC000008BC00000D4
S113001089C0000087C0000085C0000083C00000C4
S113002081C000007FC000007DC000007BC00000D4
S113003079C0000077C0000075C0000073C00000E4
S113004071C0000058C100006DC000006BC000000A
S113005069C0000067C0000065C0000063C0000004
S113006061C0000088C500005DC000005BC00000E6
S113007059C0000057C0000055C0000053C0000024
S113008051C000004FC000004DC000004BC0000034
S113009049C0000047C0000045C0000043C0000044
S11300A041C000003FC000003DC000003BC0000054
S11300B039C0000037C0000035C0000033C0000064
S11300C031C000002FC000002DC000002BC0000074
S11300D029C0000027C0000025C0000023C0000084
S11300E021C0000011241FBECFEFD1E2DEBFCDBF7F
S11300F000E00CBF12E0A0E0B2E0E4EEF1E100E0C9
S11301000BBF02C007900D92AC30B107D9F72EE0B7
S1130110ACE0B2E001C01D92A435B207E1F77AD495
S11301200C94F0086DCFCF93DF9313D580E0F2D415
S1130130C0E0D1E0B1D1D2D42FEF85EA9EE02150C6
S113014080409040E1F700C000002197209791F78C
S113015062D480E090E0DF91CF910895FFCFFF93C8
S1130160FCB7FF93FFB7F894FF93EF93DF93CF931C
S1130170BF93AF939F938F937F936F935F934F93AB
S11301803F932F931F930F93FF92EF92DF92CF929F
S1130190BF92AF929F928F927F926F925F924F9293
S11301A03F922F921F920F928DB79EB79093C40BDC
S11301B08093C30BE091C50BF091C60BF39580813E
S11301C091819EBF8DBF0F901F902F903F904F90B5
S11301D05F906F907F908F909F90AF90BF90CF90E3
S11301E0DF90EF90FF900F911F912F913F914F91CE
S11301F05F916F917F918F919F91AF91BF91CF91BB
S1130200DF91EF91FF91FFBFFF91FCBFFF91089534
S1130210FF93FCB7FF93FFB7F894FF93EF93DF933B
S1130220CF93BF93AF939F938F937F936F935F937A
S11302304F933F932F931F930F93FF92EF92DF926D
S1130240CF92BF92AF929F928F927F926F925F9262
S11302504F923F922F921F920F92E091C50BF09113
S1130260C60B8DB79EB7F395918380838091C30BA2
S11302709091C40B9EBF8DBF0F901F902F903F9005
S11302804F905F906F907F908F909F90AF90BF90B2
S1130290CF90DF90EF90FF900F911F912F913F919E
S11302A04F915F916F917F918F919F91AF91BF918A
S11302B0CF91DF91EF91FF91FFBFFF91FCBFFF91C1
S11302C00895FC0180819181009751F0DC01A15FC8
S11302D0BE4F2D913C911197318320831D921C9226
S11302E00895CF93CFB7F89483E08093290290DFE9
S11302F0CFBFCF910895FF93FCB7FF93FFB7F89456
S1130300F068FF93EF93DF93CF93BF93AF939F93E3
S11303108F937F936F935F934F933F932F931F9389
S11303200F93FF92EF92DF92CF92BF92AF929F9280
S11303308F927F926F925F924F923F922F921F9271
S11303400F92E091C50BF091C60B8DB79EB7F39554
S1130350918380838091C30B9091C40B9EBF8DBF0A
S113036081E0809329028091C70B9091C80B059678
S11303709093C80B8093C70BE8E8F0E080819181EB
S1130380805F984D918380838091C30B9091C40BBF
S11303909EBF8DBF0F901F902F903F904F905F9006
S11303A06F907F908F909F90AF90BF90CF90DF9091
S11303B0EF90FF900F911F912F913F914F915F917B
S11303C06F917F918F919F91AF91BF91CF91DF9169
S11303D0EF91FF91FFBFFF91FCBFFF910895F89447
S11303E080EF84B980910002833028F430910002B8
S11303F03F5F40E604C030910002325040E970EFA4
S113040064E62AE054E175B9862F9FE7A8E3E1E0AA
S11304109150A040E040E1F700C000008150A9F7EE
S113042015B888E2FFE798E3A1E0F1509040A040BE
S1130430E1F700C000008150A9F7332359F190E09F
S113044045B9822FEFE7F8E3A1E0E150F040A04086
S1130450E1F700C000008150A9F715B8822FEFE73B
S1130460F8E3A1E0E150F040A040E1F700C0000053
S11304708150A9F79F5F9313E3CF0CC0EFE7F8E334
S113048091E0E150F0409040E1F700C0000081505D
S1130490A9F7B9CF852FF2CF209184003091850040
S11304A08091880090918900205F384D281B390B7A
S11304B0329522952F7023273F702327A3E6B0E1BE
S11304C0AAD3969587959695879596958795209125
S11304D0C70B3091C80B820F931F0895EF92FF92C0
S11304E00F931F93CF93DF938C01EB01FB01E15F2B
S11304F0FE4F11821082DC01ED90FC901197E11403
S1130500F10441F411967C936E9313967C936E934D
S1130510129763C0FB01EA5FFE4F8081823009F0CD
S11305204FC0BADFFE01E35FFE4F608171813297F5
S113053020813181620F731F681B790BF701E35F20
S1130540FE4F40815181329720813181240F351F24
S1130550281B390B6217730758F5F80180819181C4
S1130560FE01E15FFE4F91838083D801CD93DC933C
S113057034C0F901E35FFE4F0190F081E02DD90111
S1130580A55FBE4F4D915C914E0F5F1F481B590BE9
S11305906417750710F079010BC0FE01E15FFE4F8F
S11305A031832083F701E15FFE4FD183C08315C0FF
S11305B0F701E15FFE4F2081318121153105C9F634
S11305C0D8011296ED91FC911397E15FFE4FD18310
S11305D0C0831396DC93CE931297DF91CF911F9132
S11305E00F91FF90EF900895809118029091190255
S11305F0892B09F476C080912202882329F088E1AE
S113060092E05FDEBC0102C062EB7AE0FB01E752DC
S1130610FF4F10828EEE7E96808380E83196808331
S113062032961082EEE1F2E080819181DB01A550E7
S1130630BF4F9C9380819181FB01E450FF4F8083E5
S11306403196108281E791E03196908331968083D0
S11306503196CB0189529F4F9183808382E03396F8
S1130660808380912002909121023196918380832E
S113067080912202329680838230C1F480912702D5
S113068090912802359691838083809123029091E2
S113069024023497918380838091250290912602CD
S11306A03296918380833496118210828091220243
S11306B0823029F0833049F08130B1F40CC08CE0F1
S11306C092E00CDF81E090E0089580E192E006DFA3
S11306D081E090E0089584E192E000DF81E090E021
S11306E0089580E090E0089581E090E00895E1E8C5
S11306F0F0E0808182608083EDE2F3E024EA3AE076
S11307001082CF010E9695878487EF5EFE4FE21725
S1130710F307B1F71092B10A1092B00A0F2EFAE261
S1130720EF2EF2E0FF2EF02DF0921902E092180263
S113073081EA99E090931B0280931A020EE112E081
S11307408EEA90E0F80191838083C2E2D2E01882BD
S11307504BDF83E990E0F8019183808383E0888311
S113076043DFF092C60BE092C50B81E080932D032A
S113077080E192E0A6DDEFE6F0E080818260808394
S11307808091840090918500805F984D90938900BA
S11307908093880082E086BBC0E1D2E07724739422
S11307A00CE012E00F2EF4E1EF2EF2E0FF2EF02D1C
S11307B00F2EF2EBAF2EFAE0BF2EF02D0F2EF2E249
S11307C0CF2EF2E0DF2EF02D6894662461F880913C
S11307D0C50B9091C60BFC01ED5FFE4F20812130CB
S11307E021F4825B9A4009F03CC056DE28813981AD
S11307F0232B39F0CE0165DD9093C60B8093C50B96
S113080029C0F80120813181F901E55FFE4FD9014A
S1130810A35FBE4F2D913C91821B930B20813181AC
S11308202817390738F4C8014CDD9093C60B809320
S1130830C50B10C0F70180819181892B39F0C70164
S113084040DD9093C60B8093C50B04C0B092C60BD9
S1130850A092C50BE091C50BF091C60BED5FFE4F66
S113086070827DDC80912902823009F44AC030F420
S1130870882309F4BDC0813051F0B6C0843009F436
S113088086C008F474C0853009F4B2C0ADC080904D
S1130890C50B9090C60B8114910411F1F401EA5F29
S11308A0FE4F80818230E1F433978081813009F0FA
S11308B09FC0F2DDF401E75FFE4F40815181329623
S11308C020813181240F351F329640815181841B50
S11308D0950B2817390720F485E0809300027FDD0B
S11308E0F401EA5FFE4F8081813009F081C03397C3
S11308F08081813009F07CC06082B401C701EEDDE3
S113090077C072DE90931D0280931C0280911C02BA
S113091090911D02892B09F46BC0F601808183300C
S113092061F48091C50B9091C60BFC01EA5FFE4F08
S11309302081233009F05FC05BC06091C50B7091CA
S1130940C60BFB01EA5FFE4F8081813009F050C085
S1130950F6018081823009F453C0FB01ED5FFE4F44
S11309608081823009F044C0C701B8DD41C0609184
S1130970C50B7091C60BFAE0623B7F07C9F1FB011E
S1130980ED5FFE4F108288E192E0A8DD31C08090D7
S1130990C50B9090C60BF401EA5FFE4F8081823054
S11309A049F0833019F08130D1F416C0B401CE017E
S11309B095DD15C0F401E35FFE4FD401A95FBE4F7E
S11309C02D913C9180819181820F931F918380832B
S11309D0B401C80183DD03C0B401C7017FDDF401A4
S11309E0ED5FFE4F608204C087E080930002F7DC75
S11309F010922902ECCEFC01ED5FFE4F60829DCF88
S1130A00FB01ED5FFE4F608233968081813009F4F3
S1130A10A4CFEECF6CDECF92DF92EF92FF920F93D2
S1130A201F93CF93DF938091EB0D81114EC0809182
S1130A30EC0D1F928F9381E092E09F938F9389EC4A
S1130A409BE09F938F930AD1BC0189EC9BE07DD0FE
S1130A508091E90B9091EA0B0F900F900F900F90FB
S1130A600F900F90181619064CF5CBEEDBE0E12C35
S1130A70F12C0F2EF8E0CF2EF2E0DF2EF02D09EC52
S1130A801BE08881998122969F938F93DF92CF9266
S1130A901F930F93E3D0BC01C80157D08FEFE81A1E
S1130AA0F80A8091E90B9091EA0B0F900F900F9048
S1130AB00F900F900F90E816F9061CF381E08093D5
S1130AC0EB0D1092EA0B1092E90BDF91CF911F917D
S1130AD00F91FF90EF90DF90CF9008952091E90B54
S1130AE03091EA0B2F3F310509F098F4E091E90BBE
S1130AF0F091EA0BEE0FFF1FE551F44F91838083D1
S1130B008091E90B9091EA0B01969093EA0B809304
S1130B10E90B08958093EC0D0895F894E0ECF0E06F
S1130B20908195FFFDCF8093C60078940895CF936C
S1130B30DF93EC018881882329F02196EEDF8991E7
S1130B408111FCCFDF91CF910895F1DF80E090E037
S1130B5008951092530E1092520E1092ED0D1092B1
S1130B60C50087E68093C40088E98093C1008EE0C5
S1130B708093C20008951F920F920FB60F92112412
S1130B800BB60F925F936F937F938F939F93AF9363
S1130B90BF93EF93FF93E0ECF0E080818823ECF7C0
S1130BA0E091520EF091530E8091C600E251F24F43
S1130BB080838091520E9091530E019664E670E00A
S1130BC017D09093530E8093520E81E08093ED0DD5
S1130BD0FF91EF91BF91AF919F918F917F916F9111
S1130BE05F910F900BBE0F900FBE0F901F90189542
S1130BF097FB072E16F4009406D077FD08D01AD080
S1130C0007FC05D03EF4909581959F4F089570950B
S1130C1061957F4F0895A29FB001B39FC001A39F28
S1130C20700D811D1124911DB29F700D811D112421
S1130C30911D0895AA1BBB1B51E107C0AA1FBB1F2E
S1130C40A617B70710F0A61BB70B881F991F5A9554
S1130C50A9F780959095BC01CD0108950F931F933A
S1130C60CF93DF93CDB7DEB72E970FB6F894DEBFE0
S1130C700FBECDBF0E891F8986E08C831A8309833A
S1130C808FEF9FE79E838D83AE01465E5F4F688D35
S1130C90798DCE01019610D0EF81F885E00FF11F18
S1130CA010822E960FB6F894DEBF0FBECDBFDF9133
S1130CB0CF911F910F9108952F923F924F925F927F
S1130CC06F927F928F929F92AF92BF92CF92DF9258
S1130CD0EF92FF920F931F93CF93DF93CDB7DEB7BD
S1130CE02C970FB6F894DEBF0FBECDBF7C016B010D
S1130CF08A01FC0117821682838181FFB0C1CE0173
S1130D0001964C01F7019381F60193FD859193FFC0
S1130D1081916F01882309F49EC1853239F493FDD2
S1130D20859193FF81916F01853221F4B70190E0A1
S1130D30C7D1E8CF512C312C20E02032A0F48B32E3
S1130D4069F030F4803259F0833269F420612CC0A8
S1130D508D3239F0803339F4216026C0226024605A
S1130D6023C0286021C027FD27C030ED380F3A305A
S1130D7078F426FF06C0FAE05F9E300D1124532E4E
S1130D8013C08AE0389E300D1124332E20620CC02B
S1130D908E3221F426FD5FC1206406C08C3611F426
S1130DA0206802C0883641F4F60193FD859193FFD3
S1130DB081916F018111C1CF982F9F7D95549330FC
S1130DC028F40C5F1F4FFFE3F9830DC0833631F025
S1130DD0833771F0833509F057C021C0F801808151
S1130DE089830E5F1F4F44244394512C540114C033
S1130DF03801F2E06F0E711CF801A080B18026FF6B
S1130E0003C0652D70E002C06FEF7FEFC5012C8732
S1130E104CD12C0183012C852F77222E16C038014A
S1130E20F2E06F0E711CF801A080B18026FF03C0B0
S1130E30652D70E002C06FEF7FEFC5012C872AD1CA
S1130E402C012C852068222E830123FC19C0832DBC
S1130E5090E048165906A0F4B70180E290E030D142
S1130E603A94F5CFF50127FC859127FE81915F0126
S1130E70B70190E025D131103A94F1E04F1A5108AE
S1130E804114510479F7DEC0843611F0893631F506
S1130E90F80127FF07C060817181828193810C5F13
S1130EA01F4F08C060817181882777FD8095982F36
S1130EB00E5F1F4F2F76B22E97FF09C09095809535
S1130EC0709561957F4F8F4F9F4F2068B22E2AE017
S1130ED030E0A40127D1A82EA81843C0853729F4EF
S1130EE02F7EB22E2AE030E025C0F22FF97FBF2EEC
S1130EF08F36C1F018F4883579F0ADC0803719F019
S1130F00883721F0A8C02F2F2061B22EB4FE0DC067
S1130F108B2D8460B82E09C024FF0AC09F2F9660D1
S1130F20B92E06C028E030E005C020E130E002C060
S1130F3020E132E0F801B7FE07C06081718182814F
S1130F4093810C5F1F4F06C06081718180E090E047
S1130F500E5F1F4FA401E6D0A82EA818FB2DFF7723
S1130F60BF2EB6FE0BC02B2D2E7FA51450F4B4FE5D
S1130F700AC0B2FC08C02B2D2E7E05C07A2C2B2D66
S1130F8003C07A2C01C0752C24FF0DC0FE01EA0DAC
S1130F90F11D8081803311F4297E09C022FF06C02F
S1130FA07394739404C0822F867809F0739423FD9C
S1130FB012C020FF06C05A2C731418F4530C57188F
S1130FC0732C731460F4B70180E290E02C8778D01E
S1130FD073942C85F6CF731410F4371801C0312C98
S1130FE024FF11C0B70180E390E02C8769D02C85E1
S1130FF022FF16C021FF03C088E590E002C088E705
S113100090E0B7010CC0822F867851F021FD02C018
S113101080E201C08BE227FD8DE2B70190E050D061
S1131020A51430F4B70180E390E04AD05A94F8CF85
S1131030AA94F401EA0DF11D8081B70190E040D03B
S1131040A110F6CF332009F45DCEB70180E290E021
S113105037D03A94F7CFF7018681978102C08FEF9A
S11310609FEF2C960FB6F894DEBF0FBECDBFDF9175
S1131070CF911F910F91FF90EF90DF90CF90BF9091
S1131080AF909F908F907F906F905F904F903F9024
S11310902F900895FC010590615070400110D8F71D
S11310A0809590958E0F9F1F0895FC0161507040AC
S11310B001900110D8F7809590958E0F9F1F089589
S11310C00F931F93CF93DF93182F092FEB018B817D
S11310D081FD03C08FEF9FEF20C082FF10C04E81BF
S11310E05F812C813D81421753077CF4E881F981AB
S11310F09F012F5F3F4F39832883108306C0E88503
S1131100F985812F1995892B29F72E813F812F5F2E
S11311103F4F3F832E83812F902FDF91CF911F91DB
S11311200F910895FA01AA27283051F1203181F155
S1131130E8946F936E7F6E5F7F4F8F4F9F4FAF4FDB
S1131140B1E03ED0B4E03CD0670F781F891F9A1FEE
S1131150A11D680F791F8A1F911DA11D6A0F711DA2
S1131160811D911DA11D20D009F468943F912AE0AE
S1131170269F11243019305D3193DEF6CF01089596
S1131180462F4770405D4193B3E00FD0C9F7F6CFC7
S1131190462F4F70405D4A3318F0495D31FD40528F
S11311A0419302D0A9F7EACFB4E0A6959795879525
S11311B077956795BA95C9F7009761057105089504
S11311C09B01AC010A2E06945795479537952795B0
S11311D0BA95C9F7620F731F841F951FA01D089548
S10711E0F894FFCFAD
S10F11E40354253033643B0025753B00A8
S9030000FC
