:100000007AC0000098C0000096C0000094C00000B4
:1000100092C0000090C000008EC000008CC00000A4
:100020008AC0000088C0000086C0000084C00000B4
:1000300082C0000080C000007EC000007CC00000C4
:100040007AC00000C0C1000076C0000074C000008B
:1000500072C0000070C000006EC000006CC00000E4
:100060006AC00000A3C7000066C0000064C00000B2
:1000700062C0000060C000005EC000005CC0000004
:100080005AC0000058C0000056C0000054C0000014
:1000900052C0000050C000004EC000004CC0000024
:1000A0004AC0000048C0000046C0000044C0000034
:1000B00042C0000040C000003EC000003CC0000044
:1000C0003AC0000038C0000036C0000034C0000054
:1000D00032C0000030C000002EC000002CC0000064
:1000E0002AC00000F4066805A205F0050106F40622
:1000F000430657067E0611241FBECFEFD1E2DEBFB6
:10010000CDBF00E00CBF12E0A0E0B2E0E6E2F6E115
:1001100000E00BBF02C007900D92A831B107D9F7DC
:100120002EE0A8E1B2E001C01D92AE3BB207E1F7BC
:1001300090D60C94110B64CF81E090E0EAD66091E8
:10014000040270910502809118029091190245D223
:10015000449885E090E0DDC6089582E090E0D9D62D
:10016000609102027091030280911802909119022D
:1001700034D287E090E0CDC6089583E090E0C9D600
:100180006091000270910102809118029091190211
:1001900024D288E090E0BDD65DC6089584E090E06A
:1001A000B8D6449A6AE270E08091180290911902E0
:1001B0002AD286E090E0ADC60895E6D685E1C5D6A0
:1001C00080E187B9FCD1909319028093180260E016
:1001D00070E08CE990E0C1D160E070E08EEC90E0DE
:1001E000D5D160E070E08DEA90E0D0D160E070E0C1
:1001F0008DEB90E0CBD180E090E00895FFCFFF93AE
:10020000FCB7FF93FFB7F894FF93EF93DF93CF937F
:10021000BF93AF939F938F937F936F935F934F930E
:100220003F932F931F930F93FF92EF92DF92CF9202
:10023000BF92AF929F928F927F926F925F924F92F6
:100240003F922F921F920F928DB79EB790932E0CD4
:1002500080932D0CE0912F0CF091300CF395808160
:1002600091819EBF8DBF0F901F902F903F904F9018
:100270005F906F907F908F909F90AF90BF90CF9046
:10028000DF90EF90FF900F911F912F913F914F9131
:100290005F916F917F918F919F91AF91BF91CF911E
:1002A000DF91EF91FF91FFBFFF91FCBFFF91089598
:1002B000FF93FCB7FF93FFB7F894FF93EF93DF939F
:1002C000CF93BF93AF939F938F937F936F935F93DE
:1002D0004F933F932F931F930F93FF92EF92DF92D1
:1002E000CF92BF92AF929F928F927F926F925F92C6
:1002F0004F923F922F921F920F92E0912F0CF0910C
:10030000300C8DB79EB7F3959183808380912D0C2F
:1003100090912E0C9EBF8DBF0F901F902F903F90FD
:100320004F905F906F907F908F909F90AF90BF9015
:10033000CF90DF90EF90FF900F911F912F913F9101
:100340004F915F916F917F918F919F91AF91BF91ED
:10035000CF91DF91EF91FF91FFBFFF91FCBFFF9124
:100360000895FC01DB01AB5EBE4F1D921C928081A3
:100370009181892B29F4718360837383628308954B
:10038000A281B381AB5EBE4F6D937C937383628316
:100390000895FC0180819181009751F0DC01AB5EF2
:1003A000BE4F2D913C911197318320831D921C9259
:1003B0000895CF93CFB7F89483E080935D0278DF00
:1003C000CFBFCF910895FF93FCB7FF93FFB7F89489
:1003D000F068FF93EF93DF93CF93BF93AF939F9317
:1003E0008F937F936F935F934F933F932F931F93BD
:1003F0000F93FF92EF92DF92CF92BF92AF929F92B4
:100400008F927F926F925F924F923F922F921F92A4
:100410000F92E0912F0CF091300C8DB79EB7F395B1
:100420009183808380912D0C90912E0C9EBF8DBF67
:1004300081E080935D028091310C9091320C0596A1
:100440009093320C8093310CE8E8F0E08081918148
:10045000805F984D9183808380912D0C90912E0C1C
:100460009EBF8DBF0F901F902F903F904F905F9039
:100470006F907F908F909F90AF90BF90CF90DF90C4
:10048000EF90FF900F911F912F913F914F915F91AE
:100490006F917F918F919F91AF91BF91CF91DF919C
:1004A000EF91FF91FFBFFF91FCBFFF910895F8947A
:1004B00080EF84B980911A0230911A023F5F70EF89
:1004C00064E640E92AE054E175B9862F9FE7A8E386
:1004D000E1E09150A040E040E1F700C00000815011
:1004E000A9F715B888E2FFE798E3A1E0F150904042
:1004F000A040E1F700C000008150A9F7332359F173
:1005000090E045B9822FEFE7F8E3A1E0E150F04039
:10051000A040E1F700C000008150A9F715B8822F74
:10052000EFE7F8E3A1E0E150F040A040E1F700C0C0
:1005300000008150A9F79F5F3913E3CF0CC0EFE7AC
:10054000F8E391E0E150F0409040E1F700C0000096
:100550008150A9F7B9CF852FF2CFCF93CFB7F894B9
:100560009093530280935202709355026093540209
:1005700083E08093560282E080935D0299DE809151
:10058000500290915102CFBFCF910895CF93CFB732
:10059000F8949093530280935202709355026093A3
:1005A000540281E08093560282E080935D0280DEF7
:1005B0008091500290915102CFBFCF910895CF9377
:1005C000CFB7F89486E080935D0272DE80914E0290
:1005D00090914F02CFBFCF910895CF93CFB7F894AA
:1005E00027E020935D0290934F0280934E02E091AA
:1005F0002F0CF091300CEA5FFE4F7183608358DE60
:10060000CFBFCF910895CF93CFB7F89428E0209330
:100610005D0290934F0280934E0270934D0260935F
:100620004C0246DECFBFCF910895209184003091D7
:1006300085008091880090918900205F384D281BAB
:10064000390B329522952F7023273F702327A3E67D
:10065000B0E102D59695879596958795969587955D
:100660002091310C3091320C820F931F0895CF935B
:10067000DF93EC01FC01EB5EFE4F11821082809152
:100680001B0290911C02892B49F4D0931C02C09349
:100690001B02D0931E02C0931D026BC0FE01EB5FD4
:1006A000FE4F8081823009F058C0BFDF20911B02CD
:1006B00030911C022115310509F44FC0FE01E85F9D
:1006C000FE4FA081B181349640815181A40FB51FA6
:1006D000329640815181A40FB51FA81BB90BF901B7
:1006E000E85FFE4F60817181349640815181460FF1
:1006F000571F329660817181460F571F481B590B57
:10070000A417B50710F514C0F901E85FFE4F60812A
:100710007181349640815181460F571F3296608116
:100720007181460F571F481B590BA417B50768F472
:10073000F901EB5EFE4F80819181DE01AB5EBE4F21
:100740008D939C93D183C08314C0F901EB5EFE4F5F
:100750002081318121153105B9F6E0911D02F0911A
:100760001E02EB5EFE4FD183C083D0931E02C09366
:100770001D02DF91CF910895809127029091280268
:10078000892B09F498C080915602882321F087E2D2
:1007900092E0FFDD02C086E19BE0FC01E752FF4FE3
:1007A00010822EEE7E96208320E8319620833296AA
:1007B0001082E2E5F2E020813181DC01A550BF4FDB
:1007C0003C9320813181FC01E450FF4F208331961E
:1007D000108229ED31E031963083319620833196B5
:1007E0009C0129523F4F3183208322E0329620839F
:1007F000209154023091550231963183208320910B
:100800005602329620832230D9F520915B02309136
:100810005C02E7E5F2E0408151815196241B350BE3
:10082000A901440F551F440F551F240F351F2D9349
:100830003C9320813181FC01E85FFE4FA901440F08
:10084000551F440F551F240F351F318320832091DE
:10085000590230915A023296A901440F551F440F94
:10086000551F240F351F3183208337961182108244
:100870003296118210823597118210823296108240
:1008800020915602223029F0233039F02130B1F482
:100890000BC0EDDE81E090E00895BC018FE192E0B5
:1008A00060DD81E090E00895BC0183E292E059DDD3
:1008B00081E090E0089580E090E0089581E090E08C
:1008C0000895E1E8F0E0808182608083E0E6F3E073
:1008D00021E03BE01082CF014596948B838BE95E4B
:1008E000FE4FE217F307B1F71092150B1092140B9D
:1008F0000F2EFEE5EF2EF2E0FF2EF02DF0922802F3
:10090000E09227028FEF99E090932A0280932902C8
:1009100002E512E08EEF90E0F80191838083C6E556
:10092000D2E0188229DF8DED90E0F8019183808379
:1009300083E0888321DFF092300CE0922F0C81E07D
:10094000809360038FE192E024DDEFE6F0E08081A8
:10095000826080838091840090918500805F984DB3
:10096000909389008093880082E086BB0F2EFFE180
:10097000EF2EF2E0FF2EF02D882483940F2EFBE162
:10098000AF2EF2E0BF2EF02D03E212E00F2EF6E1C3
:100990002F2EFBE03F2EF02D0F2EFEE4CF2EF2E0A7
:1009A000DF2EF02D912C582C3E0180912F0C909130
:1009B000300CFC01EE5FFE4F2081213021F4865186
:1009C0009B4009F079C080910C02811110C274C063
:1009D000C701DFDC9093300C80932F0C66C0F501CB
:1009E00080819181009709F450C0FC01E25FFE4FC5
:1009F00020813181AE01421B530B9A013697DC01F5
:100A0000A45FBE4F408151818D919C91840F951FB1
:100A100028173907D0F1C501BCDC9093300C8093C6
:100A20002F0CFC01E25FFE4FDC01A85FBE4F4D9131
:100A30005C91119720813181240F351F14964D91BF
:100A40005C91240F351F318320833596D183C08379
:100A5000F50180819181009741F1FC01E25FFE4F39
:100A600020813181C21BD30B3697DC01A45FBE4FBE
:100A7000208131818D919C91820F931FC817D907D6
:100A8000A0F085E080931A0212DDF8018081918147
:100A9000892B39F0C8017DDC9093300C80932F0CAA
:100AA00004C03092300C20922F0CE0912F0CF0916A
:100AB000300CEE5FFE4F8082A2DB80915D0290E001
:100AC0008930910508F08CC1FC01EE58FF4FBEC281
:100AD000C0912F0CD091300C209711F1FE01EB5FEB
:100AE000FE4F80818230E1F433978081813009F0BC
:100AF0007BC19BDDFE01EF5EFE4F2081318132968E
:100B000040815181241B350B820F931F39974081FF
:100B100051814817590720F482E080931A02C7DCFC
:100B2000FE01EB5FFE4F8081813009F05DC133979C
:100B30008081813009F058C122E02083BE01C801C4
:100B400010DC52C119DE90935102809350028091C3
:100B5000500290915102892B09F446C1F301808122
:100B6000833051F5C0912F0CD091300CFE01EB5F1A
:100B7000FE4F8081833009F043C136C156DDFE014E
:100B8000EF5EFE4FDE01AD5EBE4F208131814D91A3
:100B90005C911197241B350B820F931F91838083E7
:100BA00033971B97808191812D913C91821B930BF0
:100BB00091838083CE015BDD60912F0C7091300CAE
:100BC000FB01EB5FFE4F8081813009F00DC1F30125
:100BD0008081823009F036C11EC1C801C2DB04C168
:100BE00060912F0C7091300CFBE066317F0709F4A7
:100BF000FBC0FB01EE5FFE4F108287E292E0B1DBAB
:100C0000F3C0C0912F0CD091300CFE01EB5FFE4F72
:100C10008081823049F0833019F0813079F52BC022
:100C2000BE01C7019EDB2AC000DDFE01EF5EFE4F64
:100C300020813181329640815181241B350B820FF6
:100C4000931F3997408151814817590720F482E05A
:100C500080931A022CDCFE01EF5EFE4F118210829F
:100C600031978081811104C0808234971182108273
:100C7000CE01FDDC03C0BE01C80173DBCE5FDE4FD9
:100C800022E02883B1C010924F0210924E022091B0
:100C90004B02283008F0A8C0822F90E00196909374
:100CA0004F0280934E022F5F20934B029DC06091B4
:100CB0002F0C7091300CFB01EB5FFE4F8081823076
:100CC000C9F0F6018081815090914B02891720F084
:100CD00087E080931A02EBDBFB01EE5FFE4F23E01F
:100CE000208390E0880F991F880F991F855D9D4F85
:100CF00038DB7AC086E080931A02D9DBF601C08126
:100D0000C15080914B02C81748F4492CD0E0CC0F59
:100D1000DD1FCC0FDD1FC55DDD4F30C087E0809348
:100D20001A02C5DBCE0135DBFC01EA5FFE4F019004
:100D3000F081E02D20914C0230914D0231832083CF
:100D4000FC01EB5FFE4F2081233069F4BC01C70139
:100D500008DBE0912F0CF091300CEB5FFE4F8081AF
:100D6000833059F40BC0223021F487E080931A02BB
:100D70009EDBBC01C801F5DA01C0452C8881998150
:100D8000892B81F6442081F180910C02811149C0A8
:100D90002BC04BDCFE01EF5EFE4FDE01AD5EBE4FB1
:100DA000208131814D915C911197241B350B820F6D
:100DB000931F9183808333971B97808191812D911D
:100DC0003C91821B930B91838083CE0150DC0CC03D
:100DD000BE01C801C6DA08C084E080931A0267DB4E
:100DE00084E080931A0263DB90925D02DECD1DDC0D
:100DF000EC01F70180819181892B09F0E9CDEFCDDC
:100E0000FE01EE5FFE4F22E0208333968081823028
:100E100009F0D2CEB3CEFB01EE5FFE4F42E040833D
:100E200011C0C0912F0CD091300CFE01EE5FFE4F2F
:100E300052E0508333968081813051F2823009F440
:100E4000A8CFCACFFB01EE5FFE4F8081823061F6F2
:100E5000C4CE37DDCF92DF92EF92FF920F931F93B4
:100E6000CF93DF938091560E1F928F938DE092E087
:100E70009F938F9383E39CE09F938F9310D1BC014A
:100E800083E39CE07DD08091530C9091540C0F90A3
:100E90000F900F900F900F900F90181619064CF5A9
:100EA000C5E5DCE0E12CF12C0F2EF4E1CF2EF2E0D1
:100EB000DF2EF02D03E31CE08881998122969F9319
:100EC0008F93DF92CF921F930F93E9D0BC01C8019B
:100ED00057D08FEFE81AF80A8091530C9091540C78
:100EE0000F900F900F900F900F900F90E816F9064B
:100EF0001CF381E08093550E1092540C1092530C09
:100F0000DF91CF911F910F91FF90EF90DF90CF90E5
:100F100008952091530C3091540C2F3F310509F066
:100F200098F4E091530CF091540CEE0FFF1FEB5A24
:100F3000F34F918380838091530C9091540C0196D0
:100F40009093540C8093530C08958093560E0895FB
:100F5000F894E0ECF0E0908195FFFDCF8093C6001F
:100F600078940895CF93DF93EC018881882329F04A
:100F70002196EEDF89918111FCCFDF91CF91089509
:100F8000F1DF80E090E008951092BD0E1092BC0E4B
:100F90001092570E1092C50087E68093C40088E92E
:100FA0008093C1008EE08093C20008951F920F923B
:100FB0000FB60F9211240BB60F925F936F937F932E
:100FC0008F939F93AF93BF93EF93FF93E0ECF0E089
:100FD00080818823ECF7E091BC0EF091BD0E8091EA
:100FE000C600E85AF14F80838091BC0E9091BD0EEF
:100FF000019664E670E017D09093BD0E8093BC0E0E
:1010000081E08093570EFF91EF91BF91AF919F9137
:101010008F917F916F915F910F900BBE0F900FBEDC
:101020000F901F90189597FB072E16F4009406D08A
:1010300077FD08D020D007FC05D03EF4909581952F
:101040009F4F0895709561957F4F0895EE0FFF1F94
:101050000590F491E02D1994A29FB001B39FC001B7
:10106000A39F700D811D1124911DB29F700D811DD4
:101070001124911D0895AA1BBB1B51E107C0AA1F93
:10108000BB1FA617B70710F0A61BB70B881F991F29
:101090005A95A9F780959095BC01CD0108950F93BD
:1010A0001F93CF93DF93CDB7DEB72E970FB6F8948B
:1010B000DEBF0FBECDBF0E891F8986E08C831A83E9
:1010C00009838FEF9FE79E838D83AE01465E5F4F5E
:1010D000688D798DCE01019610D0EF81F885E00FF3
:1010E000F11F10822E960FB6F894DEBF0FBECDBF53
:1010F000DF91CF911F910F9108952F923F924F92C0
:101100005F926F927F928F929F92AF92BF92CF9297
:10111000DF92EF92FF920F931F93CF93DF93CDB7A0
:10112000DEB72C970FB6F894DEBF0FBECDBF7C01A3
:101130006B018A01FC0117821682838181FFB0C195
:10114000CE0101964C01F7019381F60193FD859143
:1011500093FF81916F01882309F49EC1853239F490
:1011600093FD859193FF81916F01853221F4B70141
:1011700090E0C7D1E8CF512C312C20E02032A0F4F0
:101180008B3269F030F4803259F0833269F4206197
:101190002CC08D3239F0803339F4216026C02260B2
:1011A000246023C0286021C027FD27C030ED380F00
:1011B0003A3078F426FF06C0FAE05F9E300D112425
:1011C000532E13C08AE0389E300D1124332E206236
:1011D0000CC08E3221F426FD5FC1206406C08C361F
:1011E00011F4206802C0883641F4F60193FD859120
:1011F00093FF81916F018111C1CF982F9F7D9554ED
:10120000933028F40C5F1F4FFFE3F9830DC0833642
:1012100031F0833771F0833509F057C021C0F801F0
:10122000808189830E5F1F4F44244394512C5401C5
:1012300014C03801F2E06F0E711CF801A080B1807B
:1012400026FF03C0652D70E002C06FEF7FEFC50180
:101250002C874CD12C0183012C852F77222E16C090
:101260003801F2E06F0E711CF801A080B18026FFFA
:1012700003C0652D70E002C06FEF7FEFC5012C87C2
:101280002AD12C012C852068222E830123FC19C031
:10129000832D90E048165906A0F4B70180E290E053
:1012A00030D13A94F5CFF50127FC859127FE819145
:1012B0005F01B70190E025D131103A94F1E04F1A67
:1012C00051084114510479F7DEC0843611F0893693
:1012D00031F5F80127FF07C0608171818281938118
:1012E0000C5F1F4F08C060817181882777FD809552
:1012F000982F0E5F1F4F2F76B22E97FF09C0909543
:101300008095709561957F4F8F4F9F4F2068B22ECB
:101310002AE030E0A40127D1A82EA81843C08537C1
:1013200029F42F7EB22E2AE030E025C0F22FF97F7B
:10133000BF2E8F36C1F018F4883579F0ADC08037F4
:1013400019F0883721F0A8C02F2F2061B22EB4FEEB
:101350000DC08B2D8460B82E09C024FF0AC09F2FBA
:101360009660B92E06C028E030E005C020E130E0EC
:1013700002C020E132E0F801B7FE07C06081718150
:10138000828193810C5F1F4F06C06081718180E074
:1013900090E00E5F1F4FA401E6D0A82EA818FB2DE9
:1013A000FF77BF2EB6FE0BC02B2D2E7FA51450F459
:1013B000B4FE0AC0B2FC08C02B2D2E7E05C07A2CCC
:1013C0002B2D03C07A2C01C0752C24FF0DC0FE010B
:1013D000EA0DF11D8081803311F4297E09C022FFBE
:1013E00006C07394739404C0822F867809F07394B6
:1013F00023FD12C020FF06C05A2C731418F4530C9E
:101400005718732C731460F4B70180E290E02C87B6
:1014100078D073942C85F6CF731410F4371801C06C
:10142000312C24FF11C0B70180E390E02C8769D0F4
:101430002C8522FF16C021FF03C088E590E002C082
:1014400088E790E0B7010CC0822F867851F021FD2B
:1014500002C080E201C08BE227FD8DE2B70190E07F
:1014600050D0A51430F4B70180E390E04AD05A94EC
:10147000F8CFAA94F401EA0DF11D8081B70190E044
:1014800040D0A110F6CF332009F45DCEB70180E241
:1014900090E037D03A94F7CFF7018681978102C068
:1014A0008FEF9FEF2C960FB6F894DEBF0FBECDBF27
:1014B000DF91CF911F910F91FF90EF90DF90CF9030
:1014C000BF90AF909F908F907F906F905F904F9064
:1014D0003F902F900895FC010590615070400110DD
:1014E000D8F7809590958E0F9F1F0895FC0161504D
:1014F000704001900110D8F7809590958E0F9F1F36
:1015000008950F931F93CF93DF93182F092FEB01AB
:101510008B8181FD03C08FEF9FEF20C082FF10C041
:101520004E815F812C813D81421753077CF4E88115
:10153000F9819F012F5F3F4F39832883108306C0B5
:10154000E885F985812F1995892B29F72E813F810F
:101550002F5F3F4F3F832E83812F902FDF91CF91BD
:101560001F910F910895FA01AA27283051F12031D7
:1015700081F1E8946F936E7F6E5F7F4F8F4F9F4F27
:10158000AF4FB1E03ED0B4E03CD0670F781F891F69
:101590009A1FA11D680F791F8A1F911DA11D6A0F37
:1015A000711D811D911DA11D20D009F468943F91EA
:1015B0002AE0269F11243019305D3193DEF6CF01E9
:1015C0000895462F4770405D4193B3E00FD0C9F7AF
:1015D000F6CF462F4F70405D4A3318F0495D31FD1C
:1015E0004052419302D0A9F7EACFB4E0A69597956F
:1015F000879577956795BA95C9F700976105710545
:1016000008959B01AC010A2E06945795479537958E
:101610002795BA95C9F7620F731F841F951FA01DE8
:061620000895F894FFCFCD
:10162600060208020A0203000200010001542530E6
:0816360033643B0025753B0005
:00000001FF
